:100000000C942A000C946E040C9447000C94470046
:100010000C94ED040C9447000C9447000C9447009A
:100020000C9447000C9447000C9494050C944700E2
:100030000C9447000C9447000C9447000C94470024
:100040000C9447000C9447000C9447000C94470014
:100050000C94470011241FBECFE5D8E0DEBFCDBF12
:1000600010E0A0E6B0E0EAE7FFE002C005900D92E4
:10007000AA36B107D9F720E0AAE6B0E001C01D9288
:10008000A23AB207E1F70E9478000C94BB070C94E7
:10009000000081E080937C00089580917D00815074
:1000A0008230B8F480917E008F5F80937E00982F1D
:1000B000937051F420917A0030917B0091E02927D0
:1000C00030937B0020937A00853118F081E0809393
:1000D0007D00089580917D00811104C081E08093AE
:1000E0007D0008958150823010F410927D000895B3
:1000F0000E94A8018AE690E00E94690464E670E02C
:1001000080E090E00E94470589E490E00E948F051E
:100110000E94850568EE73E080E090E00E94A004F4
:100120008DE490E00E94E8040E94DE0480917D004E
:10013000813021F030F0823039F0F8CF0E945C013C
:10014000F5CF0E94F001F2CF0E94A700EFCF0E94EE
:100150003D020E9407020E944F0280917A00909116
:100160007B00019729F480917F000E94AB0202C0BE
:100170000E94A9020E94E702813081F480917F00F1
:10018000909180008B34910548F4059690938000FF
:1001900080937F0010927E000E94AB020E941302A7
:1001A000813081F480917F009091800084329105AC
:1001B00048F005979093800080937F0010927E0016
:1001C0000E94AB0240917F0060E670E080E090E02A
:1001D0000E94490408958091810090918200AC01B1
:1001E0004B5F5F4F20917F003091800024173507CF
:1001F00068F4BC01655071096217730738F40E94F6
:100200003D020E9407020E944F02089524173507FD
:1002100038F40E943D020E9401020E9449020895A2
:1002200005978217930778F40E9437020E9407020D
:1002300080917A0090917B00019719F40E94490205
:1002400008950E944F0208952091970030919800E0
:10025000220F331F820F931FFC01718360838091F3
:100260009700909198000196909398008093970042
:100270000A9721F410929800109297000895BC01FB
:1002800090E020E030E00BC0E92FF0E0EE0FFF1F20
:10029000E60FF71F40815181240F351F9F5F9A3071
:1002A00098F3ADECBCEC0E94A107969587959695C6
:1002B000879596958795089580917C008130A9F463
:1002C00080E00E94580270939B0060939A0083E83C
:1002D00090E00E94240183E890E00E943F01909307
:1002E00082008093810010927C0080919A000E948D
:1002F000AB020E94EB000E94E702813021F00E94D5
:100300001302813039F40E94A90210927E0082E02B
:1003100080937D00089580E00E94580280E009C02B
:10032000E82FF0E0EE0FFF1FED57FF4F7183608362
:100330008F5F8A30A8F383E890E00E943F0190939A
:100340008200809381001092980010929700089587
:100350000E945E040E9431020E94FB010E9443023F
:100360000E94E1020E940D020E9455020E949A0220
:100370000E943C050E94950410927D0060E670E0AA
:1003800080E090E00E9455048F3F61F060E670E0ED
:1003900080E090E00E94550490E09093800080936C
:1003A0007F0006C08CE390E09093800080937F00F4
:1003B0000E948B0140917F0060E670E080E090E059
:1003C0000E944904089585B78F7E85BF85B78F7DCC
:1003D00085BF85B78F7B85BF85B7806885BF08954A
:1003E0000E94A9020E944F020E943D020E94070241
:1003F0000E94E301089541E067E083E00E94390331
:10040000089541E067E083E00E94AA03089540E078
:1004100067E083E00E94AA03089540E067E081E07E
:100420000E943903089567E081E00E941B04813037
:10043000A1F483ED90E30197F1F700C0000067E0BD
:1004400081E00E941B04813051F467E081E00E944A
:100450001B048130D1F381E0089580E0089580E0AD
:10046000089541E066E083E00E943903089541E089
:1004700066E083E00E94AA03089540E066E083E01E
:100480000E94AA03089541E063E080E00E943903DE
:10049000089541E063E080E00E94AA03089540E0EF
:1004A00063E080E00E94AA0308950E940503089576
:1004B0000E941E03BC01990F880B990B0E948606AF
:1004C00020E030E04AEF53E40E94120720E030ECD5
:1004D0004FE754E40E94E3050E9455060895E82F73
:1004E000F0E0E05AFF4F808185BB0895813051F4E0
:1004F00041E061E00E94AA0340E062E081E00E94E6
:10050000AA030895823051F440E061E081E00E9446
:10051000AA0341E062E081E00E94AA03089540E05E
:1005200061E081E00E94AA0340E062E081E00E9475
:10053000AA0308958FEF84BB41E061E081E00E944F
:10054000390341E062E081E00E9439030E948F029A
:10055000089515BA08951F93CF93DF93DDEC8D9F17
:10056000D12D11241D2F169516951695110F912F2B
:10057000990F990F190F811B182FD695D695D695DF
:10058000C0E019C081E00E947602812F0E946F02B4
:1005900081EE94E00197F1F700C0000082E00E9434
:1005A00076028D2F0E946F0281EE94E00197F1F7A1
:1005B00000C00000CF5FC23328F3DF91CF911F91BD
:1005C000089540E066E081E00E943903089566E006
:1005D00081E00E941B048130A1F483ED90E3019738
:1005E000F1F700C0000066E081E00E941B0481304A
:1005F00051F466E081E00E941B048130D1F381E078
:10060000089580E0089580E0089587B1806487B9F7
:1006100087B18F7787B986B1806886B987B18F7DBA
:1006200087B986B1816086B986B1826086B986B1A4
:100630008B7F86B986B1806286B9089597B1907E26
:10064000892B87B986B1806486B9349BFECF83E05D
:100650008A95F1F7000024B185B190E0A0E0B0E008
:10066000BA2FA92F982F8827820F911DA11DB11D88
:100670000895442319F04130C9F10895813091F073
:1006800028F08230D9F0833029F108952AB381E02F
:1006900090E002C0880F991F6A95E2F78095822347
:1006A0008ABB089527B381E090E002C0880F991FAC
:1006B0006A95E2F78095822387BB089524B381E091
:1006C00090E002C0880F991F6A95E2F78095822317
:1006D00084BB089521B381E090E002C0880F991F88
:1006E0006A95E2F78095822381BB0895813089F075
:1006F00028F08230C9F0833011F108952AB381E0E7
:1007000090E002C0880F991F6A95E2F7822B8ABB9E
:10071000089527B381E090E002C0880F991F6A9581
:10072000E2F7822B87BB089524B381E090E002C0FA
:10073000880F991F6A95E2F7822B84BB089521B335
:1007400081E090E002C0880F991F6A95E2F7822B42
:1007500081BB0895442319F04130C9F108958130D7
:1007600091F028F08230D9F0833029F108952BB32D
:1007700081E090E002C0880F991F6A95E2F78095AA
:1007800082238BBB089528B381E090E002C0880FDC
:10079000991F6A95E2F78095822388BB089525B357
:1007A00081E090E002C0880F991F6A95E2F780957A
:1007B000822385BB089522B381E090E002C0880FB8
:1007C000991F6A95E2F78095822382BB0895813054
:1007D00089F028F08230C9F0833011F108952BB3ED
:1007E00081E090E002C0880F991F6A95E2F7822BA2
:1007F0008BBB089528B381E090E002C0880F991F59
:100800006A95E2F7822B88BB089525B381E090E0DA
:1008100002C0880F991F6A95E2F7822B85BB089565
:1008200022B381E090E002C0880F991F6A95E2F739
:10083000822B82BB0895813079F028F08230A9F0B4
:100840008330E1F024C089B390E002C0959587958C
:100850006A95E2F78170089586B390E002C095959D
:1008600087956A95E2F78170089583B390E002C09E
:10087000959587956A95E2F78170089580B390E029
:1008800002C0959587956A95E2F78170089580E09A
:100890000895E199FECF7FBB6EBB4DBB8CB38460E6
:1008A0008CBB8CB382608CBB0895E199FECF7FBB7B
:1008B0006EBB8CB381608CBB8DB3089585B78160AE
:1008C00085BF85B7826085BF8BB780648BBF789406
:1008D000089590939D0080939C0008951F920F921D
:1008E0000FB60F9211242F933F934F935F936F9303
:1008F0007F938F939F93AF93BF93EF93FF93E09179
:100900009C00F0919D000995FF91EF91BF91AF91EF
:100910009F918F917F916F915F914F913F912F9117
:100920000F900FBE0F901F90189585B58F7B85BDDA
:1009300085B5886085BD89B7806889BF789408953A
:100940008F929F92AF92BF92CF92DF92EF92FF92DF
:10095000CF939B01AC01A8EEB3E00E94B007872EB5
:10096000982EA92EBB24CFEF01C0C150CC2ED12C84
:10097000E12CF12CC501B401A70196010E947F076B
:10098000672B682B692B89F7C501B401A701960174
:100990000E947F0720936E0030936F004093700099
:1009A00050937100C150C3BDCF91FF90EF90DF9085
:1009B000CF90BF90AF909F908F90089585B58E7F18
:1009C00085BD85B5826085BD85B5846085BD08958A
:1009D00090939F0080939E0008951F920F920FB6F0
:1009E0000F9211242F933F934F935F936F937F93B5
:1009F0008F939F93AF93BF93EF93FF9380916A0080
:100A000090916B00A0916C00B0916D000196A11DBA
:100A1000B11D80936A0090936B00A0936C00B0931B
:100A20006D0040916E0050916F0060917000709168
:100A3000710084179507A607B70769F4E0919E0037
:100A4000F0919F00099510926A0010926B0010922D
:100A50006C0010926D00FF91EF91BF91AF919F914B
:100A60008F917F916F915F914F913F912F910F9057
:100A70000FBE0F901F90189583B78F7B83BF83B7EE
:100A8000886083BF89B7826089BF789408958F9208
:100A90009F92AF92BF92CF92DF92EF92FF92CF934D
:100AA0009B01AC01A8EEB3E00E94B007872E982E00
:100AB000A92EBB24CFEF01C0C150CC2ED12CE12CEC
:100AC000F12CC501B401A70196010E947F07672B95
:100AD000682B692B89F7C501B401A70196010E9413
:100AE0007F072093760030937700409378005093EF
:100AF0007900C150CCBFCF91FF90EF90DF90CF90A5
:100B0000BF90AF909F908F90089583B78E7F83BFE3
:100B100083B78D7F83BF83B7846083BF089590932D
:100B2000A1008093A00008951F920F920FB60F921C
:100B300011242F933F934F935F936F937F938F93E2
:100B40009F93AF93BF93EF93FF9380917200909127
:100B50007300A0917400B09175000196A11DB11DA4
:100B60008093720090937300A0937400B09375000B
:100B700040917600509177006091780070917900F3
:100B800084179507A607B70769F4E091A000F091D4
:100B9000A1000995109272001092730010927400D7
:100BA00010927500FF91EF91BF91AF919F918F913E
:100BB0007F916F915F914F913F912F910F900FBE59
:100BC0000F901F9018950E94F7050C94D8060E946C
:100BD000D10658F00E94CA0640F029F45F3F29F080
:100BE0000C94C10651110C940C070C94C7060E947A
:100BF000E90668F39923B1F3552391F3951B550B3F
:100C0000BB27AA2762177307840738F09F5F5F4FDF
:100C1000220F331F441FAA1FA9F335D00E2E3AF01E
:100C2000E0E832D091505040E695001CCAF72BD036
:100C3000FE2F29D0660F771F881FBB1F2617370787
:100C40004807AB07B0E809F0BB0B802DBF01FF27B9
:100C500093585F4F3AF09E3F510578F00C94C106CF
:100C60000C940C075F3FE4F3983ED4F38695779598
:100C70006795B795F7959F5FC9F7880F911D969572
:100C8000879597F90895E1E0660F771F881FBB1FCE
:100C9000621773078407BA0720F0621B730B840B7B
:100CA000BA0BEE1F88F7E09508950E94F10688F0D0
:100CB0009F5798F0B92F9927B751B0F0E1F0660F20
:100CC000771F881F991F1AF0BA95C9F714C0B13061
:100CD00091F00E940B07B1E008950C940B07672F69
:100CE000782F8827B85F39F0B93FCCF38695779590
:100CF0006795B395D9F73EF4909580957095619579
:100D00007F4F8F4F9F4F0895E89409C097FB3EF4A3
:100D100090958095709561957F4F8F4F9F4F992348
:100D2000A9F0F92F96E9BB279395F69587957795C6
:100D30006795B795F111F8CFFAF4BB0F11F460FF86
:100D40001BC06F5F7F4F8F4F9F4F16C0882311F0DE
:100D500096E911C0772321F09EE8872F762F05C0F2
:100D6000662371F096E8862F70E060E02AF09A958D
:100D7000660F771F881FDAF7880F9695879597F982
:100D8000089597F99F6780E870E060E008959FEF0D
:100D900080EC089500240A94161617061806090612
:100DA000089500240A9412161306140605060895E1
:100DB000092E0394000C11F4882352F0BB0F40F469
:100DC000BF2B11F460FF04C06F5F7F4F8F4F9F4FA9
:100DD000089557FD9058440F551F59F05F3F71F02B
:100DE0004795880F97FB991F61F09F3F79F0879592
:100DF0000895121613061406551FF2CF4695F1DF1B
:100E000008C0161617061806991FF1CF86957105AA
:100E1000610508940895E894BB2766277727CB01DE
:100E200097F908950E9425070C94D8060E94CA06D7
:100E300038F00E94D10620F0952311F00C94C106E1
:100E40000C94C70611240C940C070E94E90670F359
:100E5000959FC1F3950F50E0551F629FF001729F5F
:100E6000BB27F00DB11D639FAA27F00DB11DAA1F6E
:100E7000649F6627B00DA11D661F829F2227B00DBB
:100E8000A11D621F739FB00DA11D621F839FA00D46
:100E9000611D221F749F3327A00D611D231F849F96
:100EA000600D211D822F762F6A2F11249F575040ED
:100EB0009AF0F1F088234AF0EE0FFF1FBB1F661F68
:100EC000771F881F91505040A9F79E3F510580F031
:100ED0000C94C1060C940C075F3FE4F3983ED4F3E6
:100EE000869577956795B795F795E7959F5FC1F7D5
:100EF000FE2B880F911D9695879597F90895A1E28D
:100F00001A2EAA1BBB1BFD010DC0AA1FBB1FEE1F83
:100F1000FF1FA217B307E407F50720F0A21BB30BCE
:100F2000E40BF50B661F771F881F991F1A9469F74A
:100F300060957095809590959B01AC01BD01CF01A6
:100F40000895A29FB001B39FC001A39F700D811DA2
:100F50001124911DB29F700D811D1124911D0895C2
:100F60000E94A107A59F900DB49F900DA49F800D96
:0A0F7000911D11240895F894FFCF9D
:0A0F7A003F065B4F666D7D077F6F39
:00000001FF
